{
  "contractName": "Ecommerce",
  "abi": [
    {
      "inputs": [
        {
          "internalType": "uint256",
          "name": "",
          "type": "uint256"
        }
      ],
      "name": "products",
      "outputs": [
        {
          "internalType": "uint256",
          "name": "productid",
          "type": "uint256"
        },
        {
          "internalType": "string",
          "name": "title",
          "type": "string"
        },
        {
          "internalType": "string",
          "name": "desc",
          "type": "string"
        },
        {
          "internalType": "address payable",
          "name": "seller",
          "type": "address"
        },
        {
          "internalType": "uint256",
          "name": "amount",
          "type": "uint256"
        },
        {
          "internalType": "uint8",
          "name": "state",
          "type": "uint8"
        },
        {
          "internalType": "address",
          "name": "buyer",
          "type": "address"
        }
      ],
      "stateMutability": "view",
      "type": "function",
      "constant": true
    },
    {
      "inputs": [
        {
          "internalType": "string",
          "name": "_title",
          "type": "string"
        },
        {
          "internalType": "string",
          "name": "_desc",
          "type": "string"
        },
        {
          "internalType": "uint256",
          "name": "_amount",
          "type": "uint256"
        }
      ],
      "name": "registerProduct",
      "outputs": [],
      "stateMutability": "nonpayable",
      "type": "function"
    },
    {
      "inputs": [
        {
          "internalType": "uint256",
          "name": "_productid",
          "type": "uint256"
        }
      ],
      "name": "buyProduct",
      "outputs": [],
      "stateMutability": "payable",
      "type": "function",
      "payable": true
    },
    {
      "inputs": [
        {
          "internalType": "uint256",
          "name": "_productid",
          "type": "uint256"
        }
      ],
      "name": "deliveryConfirmation",
      "outputs": [],
      "stateMutability": "payable",
      "type": "function",
      "payable": true
    },
    {
      "inputs": [],
      "name": "findUnsoldProducts",
      "outputs": [
        {
          "components": [
            {
              "internalType": "uint256",
              "name": "productid",
              "type": "uint256"
            },
            {
              "internalType": "string",
              "name": "title",
              "type": "string"
            },
            {
              "internalType": "string",
              "name": "desc",
              "type": "string"
            },
            {
              "internalType": "address payable",
              "name": "seller",
              "type": "address"
            },
            {
              "internalType": "uint256",
              "name": "amount",
              "type": "uint256"
            },
            {
              "internalType": "uint8",
              "name": "state",
              "type": "uint8"
            },
            {
              "internalType": "address",
              "name": "buyer",
              "type": "address"
            }
          ],
          "internalType": "struct Ecommerce.Product[]",
          "name": "",
          "type": "tuple[]"
        }
      ],
      "stateMutability": "view",
      "type": "function",
      "constant": true
    }
  ],
  "bytecode": "0x608060405234801561001057600080fd5b50611904806100206000396000f3fe60806040526004361061004a5760003560e01c80633153a15b1461004f5780636e07dca6146100785780637acc0b20146100a35780638642269e146100e6578063d677c3cc14610102575b600080fd5b34801561005b57600080fd5b5061007660048036038101906100719190610e52565b61011e565b005b34801561008457600080fd5b5061008d6102bb565b60405161009a919061114e565b60405180910390f35b3480156100af57600080fd5b506100ca60048036038101906100c59190611170565b610652565b6040516100dd9796959493929190611223565b60405180910390f35b61010060048036038101906100fb9190611170565b610801565b005b61011c60048036038101906101179190611170565b610a38565b005b60006040518060e0016040528060008054905081526020018581526020018481526020013373ffffffffffffffffffffffffffffffffffffffff168152602001670de0b6b3a76400008461017291906112cf565b8152602001600060ff168152602001600073ffffffffffffffffffffffffffffffffffffffff1681525090806001815401808255809150506001900390600052602060002090600602016000909190919091506000820151816000015560208201518160010190816101e4919061151d565b5060408201518160020190816101fa919061151d565b5060608201518160030160006101000a81548173ffffffffffffffffffffffffffffffffffffffff021916908373ffffffffffffffffffffffffffffffffffffffff1602179055506080820151816004015560a08201518160050160006101000a81548160ff021916908360ff16021790555060c08201518160050160016101000a81548173ffffffffffffffffffffffffffffffffffffffff021916908373ffffffffffffffffffffffffffffffffffffffff1602179055505050505050565b6060600080600090505b6000805490508110156103305760008082815481106102e7576102e66115ef565b5b906000526020600020906006020160050160009054906101000a900460ff1660ff160361031d5781806103199061161e565b9250505b80806103289061161e565b9150506102c5565b5060008167ffffffffffffffff81111561034d5761034c610cf1565b5b60405190808252806020026020018201604052801561038657816020015b610373610c56565b81526020019060019003908161036b5790505b509050600080600090505b6000805490508110156106485760008082815481106103b3576103b26115ef565b5b906000526020600020906006020160050160009054906101000a900460ff1660ff160361063557600081815481106103ee576103ed6115ef565b5b90600052602060002090600602016040518060e00160405290816000820154815260200160018201805461042190611340565b80601f016020809104026020016040519081016040528092919081815260200182805461044d90611340565b801561049a5780601f1061046f5761010080835404028352916020019161049a565b820191906000526020600020905b81548152906001019060200180831161047d57829003601f168201915b505050505081526020016002820180546104b390611340565b80601f01602080910402602001604051908101604052809291908181526020018280546104df90611340565b801561052c5780601f106105015761010080835404028352916020019161052c565b820191906000526020600020905b81548152906001019060200180831161050f57829003601f168201915b505050505081526020016003820160009054906101000a900473ffffffffffffffffffffffffffffffffffffffff1673ffffffffffffffffffffffffffffffffffffffff1673ffffffffffffffffffffffffffffffffffffffff168152602001600482015481526020016005820160009054906101000a900460ff1660ff1660ff1681526020016005820160019054906101000a900473ffffffffffffffffffffffffffffffffffffffff1673ffffffffffffffffffffffffffffffffffffffff1673ffffffffffffffffffffffffffffffffffffffff168152505083838151811061061b5761061a6115ef565b5b602002602001018190525081806106319061161e565b9250505b80806106409061161e565b915050610391565b5081935050505090565b6000818154811061066257600080fd5b906000526020600020906006020160009150905080600001549080600101805461068b90611340565b80601f01602080910402602001604051908101604052809291908181526020018280546106b790611340565b80156107045780601f106106d957610100808354040283529160200191610704565b820191906000526020600020905b8154815290600101906020018083116106e757829003601f168201915b50505050509080600201805461071990611340565b80601f016020809104026020016040519081016040528092919081815260200182805461074590611340565b80156107925780601f1061076757610100808354040283529160200191610792565b820191906000526020600020905b81548152906001019060200180831161077557829003601f168201915b5050505050908060030160009054906101000a900473ffffffffffffffffffffffffffffffffffffffff16908060040154908060050160009054906101000a900460ff16908060050160019054906101000a900473ffffffffffffffffffffffffffffffffffffffff16905087565b6000808281548110610816576108156115ef565b5b906000526020600020906006020160050160009054906101000a900460ff1660ff1614610878576040517f08c379a000000000000000000000000000000000000000000000000000000000815260040161086f906116b2565b60405180910390fd5b6000818154811061088c5761088b6115ef565b5b906000526020600020906006020160030160009054906101000a900473ffffffffffffffffffffffffffffffffffffffff1673ffffffffffffffffffffffffffffffffffffffff163373ffffffffffffffffffffffffffffffffffffffff160361092b576040517f08c379a00000000000000000000000000000000000000000000000000000000081526004016109229061171e565b60405180910390fd5b6000818154811061093f5761093e6115ef565b5b9060005260206000209060060201600401543414610992576040517f08c379a0000000000000000000000000000000000000000000000000000000008152600401610989906117b0565b60405180910390fd5b6001600082815481106109a8576109a76115ef565b5b906000526020600020906006020160050160006101000a81548160ff021916908360ff16021790555033600082815481106109e6576109e56115ef565b5b906000526020600020906006020160050160016101000a81548173ffffffffffffffffffffffffffffffffffffffff021916908373ffffffffffffffffffffffffffffffffffffffff16021790555050565b600160008281548110610a4e57610a4d6115ef565b5b906000526020600020906006020160050160009054906101000a900460ff1660ff1614610ab0576040517f08c379a0000000000000000000000000000000000000000000000000000000008152600401610aa79061181c565b60405180910390fd5b60008181548110610ac457610ac36115ef565b5b906000526020600020906006020160050160019054906101000a900473ffffffffffffffffffffffffffffffffffffffff1673ffffffffffffffffffffffffffffffffffffffff163373ffffffffffffffffffffffffffffffffffffffff1614610b63576040517f08c379a0000000000000000000000000000000000000000000000000000000008152600401610b5a906118ae565b60405180910390fd5b600260008281548110610b7957610b786115ef565b5b906000526020600020906006020160050160006101000a81548160ff021916908360ff16021790555060008181548110610bb657610bb56115ef565b5b906000526020600020906006020160030160009054906101000a900473ffffffffffffffffffffffffffffffffffffffff1673ffffffffffffffffffffffffffffffffffffffff166108fc60008381548110610c1557610c146115ef565b5b9060005260206000209060060201600401549081150290604051600060405180830381858888f19350505050158015610c52573d6000803e3d6000fd5b5050565b6040518060e00160405280600081526020016060815260200160608152602001600073ffffffffffffffffffffffffffffffffffffffff16815260200160008152602001600060ff168152602001600073ffffffffffffffffffffffffffffffffffffffff1681525090565b6000604051905090565b600080fd5b600080fd5b600080fd5b600080fd5b6000601f19601f8301169050919050565b7f4e487b7100000000000000000000000000000000000000000000000000000000600052604160045260246000fd5b610d2982610ce0565b810181811067ffffffffffffffff82111715610d4857610d47610cf1565b5b80604052505050565b6000610d5b610cc2565b9050610d678282610d20565b919050565b600067ffffffffffffffff821115610d8757610d86610cf1565b5b610d9082610ce0565b9050602081019050919050565b82818337600083830152505050565b6000610dbf610dba84610d6c565b610d51565b905082815260208101848484011115610ddb57610dda610cdb565b5b610de6848285610d9d565b509392505050565b600082601f830112610e0357610e02610cd6565b5b8135610e13848260208601610dac565b91505092915050565b6000819050919050565b610e2f81610e1c565b8114610e3a57600080fd5b50565b600081359050610e4c81610e26565b92915050565b600080600060608486031215610e6b57610e6a610ccc565b5b600084013567ffffffffffffffff811115610e8957610e88610cd1565b5b610e9586828701610dee565b935050602084013567ffffffffffffffff811115610eb657610eb5610cd1565b5b610ec286828701610dee565b9250506040610ed386828701610e3d565b9150509250925092565b600081519050919050565b600082825260208201905092915050565b6000819050602082019050919050565b610f1281610e1c565b82525050565b600081519050919050565b600082825260208201905092915050565b60005b83811015610f52578082015181840152602081019050610f37565b60008484015250505050565b6000610f6982610f18565b610f738185610f23565b9350610f83818560208601610f34565b610f8c81610ce0565b840191505092915050565b600073ffffffffffffffffffffffffffffffffffffffff82169050919050565b6000610fc282610f97565b9050919050565b610fd281610fb7565b82525050565b600060ff82169050919050565b610fee81610fd8565b82525050565b6000610fff82610f97565b9050919050565b61100f81610ff4565b82525050565b600060e08301600083015161102d6000860182610f09565b50602083015184820360208601526110458282610f5e565b9150506040830151848203604086015261105f8282610f5e565b91505060608301516110746060860182610fc9565b5060808301516110876080860182610f09565b5060a083015161109a60a0860182610fe5565b5060c08301516110ad60c0860182611006565b508091505092915050565b60006110c48383611015565b905092915050565b6000602082019050919050565b60006110e482610edd565b6110ee8185610ee8565b93508360208202850161110085610ef9565b8060005b8581101561113c578484038952815161111d85826110b8565b9450611128836110cc565b925060208a01995050600181019050611104565b50829750879550505050505092915050565b6000602082019050818103600083015261116881846110d9565b905092915050565b60006020828403121561118657611185610ccc565b5b600061119484828501610e3d565b91505092915050565b6111a681610e1c565b82525050565b600082825260208201905092915050565b60006111c882610f18565b6111d281856111ac565b93506111e2818560208601610f34565b6111eb81610ce0565b840191505092915050565b6111ff81610fb7565b82525050565b61120e81610fd8565b82525050565b61121d81610ff4565b82525050565b600060e082019050611238600083018a61119d565b818103602083015261124a81896111bd565b9050818103604083015261125e81886111bd565b905061126d60608301876111f6565b61127a608083018661119d565b61128760a0830185611205565b61129460c0830184611214565b98975050505050505050565b7f4e487b7100000000000000000000000000000000000000000000000000000000600052601160045260246000fd5b60006112da82610e1c565b91506112e583610e1c565b92508282026112f381610e1c565b9150828204841483151761130a576113096112a0565b5b5092915050565b7f4e487b7100000000000000000000000000000000000000000000000000000000600052602260045260246000fd5b6000600282049050600182168061135857607f821691505b60208210810361136b5761136a611311565b5b50919050565b60008190508160005260206000209050919050565b60006020601f8301049050919050565b600082821b905092915050565b6000600883026113d37fffffffffffffffffffffffffffffffffffffffffffffffffffffffffffffffff82611396565b6113dd8683611396565b95508019841693508086168417925050509392505050565b6000819050919050565b600061141a61141561141084610e1c565b6113f5565b610e1c565b9050919050565b6000819050919050565b611434836113ff565b61144861144082611421565b8484546113a3565b825550505050565b600090565b61145d611450565b61146881848461142b565b505050565b5b8181101561148c57611481600082611455565b60018101905061146e565b5050565b601f8211156114d1576114a281611371565b6114ab84611386565b810160208510156114ba578190505b6114ce6114c685611386565b83018261146d565b50505b505050565b600082821c905092915050565b60006114f4600019846008026114d6565b1980831691505092915050565b600061150d83836114e3565b9150826002028217905092915050565b61152682610f18565b67ffffffffffffffff81111561153f5761153e610cf1565b5b6115498254611340565b611554828285611490565b600060209050601f8311600181146115875760008415611575578287015190505b61157f8582611501565b8655506115e7565b601f19841661159586611371565b60005b828110156115bd57848901518255600182019150602085019450602081019050611598565b868310156115da57848901516115d6601f8916826114e3565b8355505b6001600288020188555050505b505050505050565b7f4e487b7100000000000000000000000000000000000000000000000000000000600052603260045260246000fd5b600061162982610e1c565b91507fffffffffffffffffffffffffffffffffffffffffffffffffffffffffffffffff820361165b5761165a6112a0565b5b600182019050919050565b7f43616e742073656c6c20616c726561647920736f6c642070726f647563740000600082015250565b600061169c601e836111ac565b91506116a782611666565b602082019050919050565b600060208201905081810360008301526116cb8161168f565b9050919050565b7f53656c6c65722063616e7420627579207468652070726f647563740000000000600082015250565b6000611708601b836111ac565b9150611713826116d2565b602082019050919050565b60006020820190508181036000830152611737816116fb565b9050919050565b7f43616e74206275792070726f64756374207769746820686967686572206f722060008201527f6c6f77657220616d6f756e740000000000000000000000000000000000000000602082015250565b600061179a602c836111ac565b91506117a58261173e565b604082019050919050565b600060208201905081810360008301526117c98161178d565b9050919050565b7f43616e742064656c6976657220756e736f6c642070726f647563740000000000600082015250565b6000611806601b836111ac565b9150611811826117d0565b602082019050919050565b60006020820190508181036000830152611835816117f9565b9050919050565b7f44656c69766572792063616e20626520636f6e6669726d6564206f6e6c79206260008201527f7920746865206275796572000000000000000000000000000000000000000000602082015250565b6000611898602b836111ac565b91506118a38261183c565b604082019050919050565b600060208201905081810360008301526118c78161188b565b905091905056fea2646970667358221220d1d6cd45e46f7508b93adca793033464e1a2de5f8b0f9d2d4182382989f20c9c64736f6c63430008110033",
  "immutableReferences": {},
  "source": "// SPDX-License-Identifier: GPL-3.0\r\n\r\npragma solidity >=0.7.0 <0.9.0;\r\n\r\ncontract Ecommerce{\r\n\r\n    struct Product{\r\n        uint256 productid;\r\n        string title;\r\n        string desc;\r\n        address payable seller;\r\n        uint256 amount;\r\n        uint8 state;\r\n        address buyer;\r\n    }\r\n\r\n    Product[] public products;\r\n\r\n    function registerProduct(string memory _title, string memory _desc, uint _amount) public{\r\n        products.push(Product({productid:products.length,title:_title,desc:_desc,seller:payable(msg.sender),amount:_amount*(10**18),state:0,buyer:address(0)}));\r\n    }\r\n\r\n    function buyProduct(uint256 _productid) public payable{\r\n        require(products[_productid].state==0, \"Cant sell already sold product\");\r\n        require(msg.sender != products[_productid].seller, \"Seller cant buy the product\");\r\n        require(msg.value == products[_productid].amount, \"Cant buy product with higher or lower amount\");\r\n        products[_productid].state = 1;\r\n        products[_productid].buyer = msg.sender;\r\n    }\r\n\r\n    function deliveryConfirmation(uint256 _productid) public payable{\r\n        require(products[_productid].state==1, \"Cant deliver unsold product\");\r\n        require(msg.sender == products[_productid].buyer, \"Delivery can be confirmed only by the buyer\");\r\n        products[_productid].state=2;\r\n        products[_productid].seller.transfer(products[_productid].amount);\r\n    }\r\n\r\n    function findUnsoldProducts() public view returns(Product[] memory) {\r\n        uint256 resultCount;\r\n        for (uint i = 0; i < products.length; i++) {\r\n            if (products[i].state == 0) {\r\n                resultCount++;\r\n            }\r\n        }\r\n        Product[] memory result = new Product[](resultCount);\r\n        uint256 j;\r\n        for (uint i = 0; i < products.length; i++) {\r\n            if (products[i].state == 0) {\r\n                result[j] = products[i];\r\n                j++;\r\n            }\r\n        }\r\n        return result;\r\n    }\r\n}",
  "sourcePath": "C:\\Users\\kritarth\\OneDrive\\Desktop\\Sem7\\BCT\\Lab\\ecommerce_exp5\\contracts\\ecommerce.sol",
  "compiler": {
    "name": "solc",
    "version": "0.8.17+commit.8df45f5f.Emscripten.clang"
  },
  "schemaVersion": "3.4.11",
  "updatedAt": "2022-11-29T16:35:08.042Z",
  "networkType": "ethereum",
  "devdoc": {
    "kind": "dev",
    "methods": {},
    "version": 1
  },
  "userdoc": {
    "kind": "user",
    "methods": {},
    "version": 1
  }
}